{
    "contractName": "Survey",
    "abi": [
        {
            "inputs": [
                {
                    "internalType": "address",
                    "name": "owner",
                    "type": "address"
                }
            ],
            "stateMutability": "nonpayable",
            "type": "constructor"
        },
        {
            "inputs": [],
            "name": "_maxParticipants",
            "outputs": [
                {
                    "internalType": "uint256",
                    "name": "",
                    "type": "uint256"
                }
            ],
            "stateMutability": "view",
            "type": "function"
        },
        {
            "inputs": [],
            "name": "getAnswers",
            "outputs": [
                {
                    "internalType": "string[][]",
                    "name": "",
                    "type": "string[][]"
                }
            ],
            "stateMutability": "view",
            "type": "function"
        },
        {
            "inputs": [],
            "name": "getParticipantList",
            "outputs": [
                {
                    "internalType": "address[]",
                    "name": "",
                    "type": "address[]"
                }
            ],
            "stateMutability": "view",
            "type": "function"
        },
        {
            "inputs": [
                {
                    "internalType": "string[]",
                    "name": "questions",
                    "type": "string[]"
                }
            ],
            "name": "init",
            "outputs": [],
            "stateMutability": "nonpayable",
            "type": "function"
        },
        {
            "inputs": [],
            "name": "name",
            "outputs": [
                {
                    "internalType": "string",
                    "name": "",
                    "type": "string"
                }
            ],
            "stateMutability": "view",
            "type": "function"
        },
        {
            "inputs": [
                {
                    "internalType": "string[]",
                    "name": "answers",
                    "type": "string[]"
                },
                {
                    "internalType": "address",
                    "name": "caller",
                    "type": "address"
                }
            ],
            "name": "participate",
            "outputs": [],
            "stateMutability": "nonpayable",
            "type": "function"
        },
        {
            "inputs": [],
            "name": "state",
            "outputs": [
                {
                    "internalType": "enum Survey.State",
                    "name": "",
                    "type": "uint8"
                }
            ],
            "stateMutability": "view",
            "type": "function"
        }
    ],
    "bytecode": "6080604052600360045534801561001557600080fd5b50604051610a63380380610a6383398101604081905261003491610066565b600080546001600160a01b0319166001600160a01b03929092169190911781556003556007805460ff19169055610094565b600060208284031215610077578081fd5b81516001600160a01b038116811461008d578182fd5b9392505050565b6109c0806100a36000396000f3fe608060405234801561001057600080fd5b506004361061007d5760003560e01c8063b5e9757c1161005b578063b5e9757c146100c8578063c19d93fb146100dd578063c793fcf9146100f2578063ed214fff146101075761007d565b806306fdde031461008257806352a461cc146100a057806376f31bf5146100b5575b600080fd5b61008a61011c565b60405161009791906108a6565b60405180910390f35b6100b36100ae3660046106fb565b6101aa565b005b6100b36100c33660046106c0565b610284565b6100d06102d8565b604051610097919061095a565b6100e56102de565b6040516100979190610892565b6100fa6102e7565b60405161009791906107f0565b61010f610437565b60405161009791906107a3565b6006805460408051602060026001851615610100026000190190941693909304601f810184900484028201840190925281815292918301828280156101a25780601f10610177576101008083540402835291602001916101a2565b820191906000526020600020905b81548152906001019060200180831161018557829003601f168201915b505050505081565b600160075460ff1660028111156101bd57fe5b146101e35760405162461bcd60e51b81526004016101da906108ec565b60405180910390fd5b600580546001810182556000919091527f036b6384b5eca791c62761152d0c79bb0604c104a5fb6f4eb0703f3154bb3db00180546001600160a01b0319166001600160a01b03831617905560035460028054849290811061024057fe5b90600052602060002001908051906020019061025d929190610499565b5060038054600101908190556004541415610280576007805460ff191660021790555b5050565b600060075460ff16600281111561029757fe5b146102b45760405162461bcd60e51b81526004016101da90610923565b80516102c7906001906020840190610499565b50506007805460ff19166001179055565b60045481565b60075460ff1681565b6060600260075460ff1660028111156102fc57fe5b146103195760405162461bcd60e51b81526004016101da906108c0565b6002805480602002602001604051908101604052809291908181526020016000905b8282101561042d57838290600052602060002001805480602002602001604051908101604052809291908181526020016000905b8282101561041a5760008481526020908190208301805460408051601f60026000196101006001871615020190941693909304928301859004850281018501909152818152928301828280156104065780601f106103db57610100808354040283529160200191610406565b820191906000526020600020905b8154815290600101906020018083116103e957829003601f168201915b50505050508152602001906001019061036f565b505050508152602001906001019061033b565b5050505090505b90565b6060600580548060200260200160405190810160405280929190818152602001828054801561048f57602002820191906000526020600020905b81546001600160a01b03168152600190910190602001808311610471575b5050505050905090565b8280548282559060005260206000209081019282156104e6579160200282015b828111156104e657825180516104d69184916020909101906104f6565b50916020019190600101906104b9565b506104f2929150610570565b5090565b828054600181600116156101000203166002900490600052602060002090601f016020900481019282601f1061053757805160ff1916838001178555610564565b82800160010185558215610564579182015b82811115610564578251825591602001919060010190610549565b506104f2929150610593565b61043491905b808211156104f257600061058a82826105ad565b50600101610576565b61043491905b808211156104f25760008155600101610599565b50805460018160011615610100020316600290046000825580601f106105d357506105f1565b601f0160209004906000526020600020908101906105f19190610593565b50565b6000601f8381840112610605578182fd5b823567ffffffffffffffff8082111561061c578384fd5b602061062b8182850201610963565b838152945080850186820160005b858110156106b357813589018a603f82011261065457600080fd5b848101358681111561066557600080fd5b610676818a01601f19168701610963565b81815260408d8184860101111561068c57600080fd5b82818501898401375060009181018701919091528452509183019190830190600101610639565b5050505050505092915050565b6000602082840312156106d1578081fd5b813567ffffffffffffffff8111156106e7578182fd5b6106f3848285016105f4565b949350505050565b6000806040838503121561070d578081fd5b823567ffffffffffffffff811115610723578182fd5b61072f858286016105f4565b92505060208301356001600160a01b038116811461074b578182fd5b809150509250929050565b600081518084526020825b8281101561077c578481018201518682018301528101610761565b8281111561078c57838284880101525b5080601f19601f8401168601019250505092915050565b6020808252825182820181905260009190848201906040850190845b818110156107e45783516001600160a01b0316835292840192918401916001016107bf565b50909695505050505050565b6000602080830181845280855180835260408601915060408482028701019250838701855b8281101561088557878503603f19018452815180518087528891888801919089820289018a01908a015b8285101561086f57601f198a830301845261085b828251610756565b60019590950194938b019391508a0161083f565b5097505050938601935090850190600101610815565b5092979650505050505050565b60208101600383106108a057fe5b91905290565b6000602082526108b96020830184610756565b9392505050565b60208082526012908201527114dd185d19481a5cc81b9bdd08115391115160721b604082015260600190565b6020808252601a908201527f43757272656e74207374617465206d757374206265204f50454e000000000000604082015260600190565b6020808252601d908201527f43757272656e74207374617465206d7573742062652043524541544544000000604082015260600190565b90815260200190565b60405181810167ffffffffffffffff8111828210171561098257600080fd5b60405291905056fea2646970667358221220503417247b873e679716a73f7414f3df529dfd6858afdb85c59fdfc45ee1d4f064736f6c63430006090033",
    "sourcePath": "/Users/juliastein/Documents/Uni/Master TUB/Projekte /BC-project/bubble/contracts/Survey.sol",
    "compiler": {
        "name": "solc",
        "version": "0.6.9+commit.3e3065ac"
    },
    "functionHashes": {
        "_maxParticipants()": "b5e9757c",
        "getAnswers()": "c793fcf9",
        "getParticipantList()": "ed214fff",
        "init(string[])": "76f31bf5",
        "name()": "06fdde03",
        "participate(string[],address)": "52a461cc",
        "state()": "c19d93fb"
    },
    "gasEstimates": {
        "creation": {
            "codeDepositCost": "499200",
            "executionCost": "infinite",
            "totalCost": "infinite"
        },
        "external": {
            "_maxParticipants()": "1028",
            "getAnswers()": "infinite",
            "getParticipantList()": "infinite",
            "init(string[])": "infinite",
            "name()": "infinite",
            "participate(string[],address)": "infinite",
            "state()": "1082"
        }
    }
}