{
  "contractName": "Survey",
  "abi": [
    {
      "inputs": [
        {
          "internalType": "string",
          "name": "name",
          "type": "string"
        },
        {
          "internalType": "string",
          "name": "URL",
          "type": "string"
        },
        {
          "internalType": "uint256",
          "name": "participants",
          "type": "uint256"
        }
      ],
      "payable": false,
      "stateMutability": "nonpayable",
      "type": "constructor"
    },
    {
      "constant": true,
      "inputs": [],
      "name": "_owner",
      "outputs": [
        {
          "internalType": "address",
          "name": "",
          "type": "address"
        }
      ],
      "payable": false,
      "stateMutability": "view",
      "type": "function"
    },
    {
      "constant": true,
      "inputs": [],
      "name": "_surveyname",
      "outputs": [
        {
          "internalType": "string",
          "name": "",
          "type": "string"
        }
      ],
      "payable": false,
      "stateMutability": "view",
      "type": "function"
    },
    {
      "constant": true,
      "inputs": [],
      "name": "state",
      "outputs": [
        {
          "internalType": "enum Survey.State",
          "name": "",
          "type": "uint8"
        }
      ],
      "payable": false,
      "stateMutability": "view",
      "type": "function"
    },
    {
      "constant": true,
      "inputs": [],
      "name": "get_URL",
      "outputs": [
        {
          "internalType": "string",
          "name": "",
          "type": "string"
        }
      ],
      "payable": false,
      "stateMutability": "view",
      "type": "function"
    },
    {
      "constant": true,
      "inputs": [],
      "name": "get_amountparticipants",
      "outputs": [
        {
          "internalType": "uint256",
          "name": "",
          "type": "uint256"
        }
      ],
      "payable": false,
      "stateMutability": "view",
      "type": "function"
    },
    {
      "constant": false,
      "inputs": [
        {
          "internalType": "uint256",
          "name": "new_participantnumber",
          "type": "uint256"
        }
      ],
      "name": "set_amountparticipants",
      "outputs": [],
      "payable": false,
      "stateMutability": "nonpayable",
      "type": "function"
    },
    {
      "constant": false,
      "inputs": [
        {
          "internalType": "string[]",
          "name": "questions",
          "type": "string[]"
        }
      ],
      "name": "PrepareSurvey",
      "outputs": [
        {
          "internalType": "string[]",
          "name": "",
          "type": "string[]"
        }
      ],
      "payable": false,
      "stateMutability": "nonpayable",
      "type": "function"
    },
    {
      "constant": false,
      "inputs": [
        {
          "internalType": "uint256",
          "name": "_amountquestions",
          "type": "uint256"
        }
      ],
      "name": "InitSurvey",
      "outputs": [
        {
          "internalType": "string[][]",
          "name": "",
          "type": "string[][]"
        }
      ],
      "payable": false,
      "stateMutability": "nonpayable",
      "type": "function"
    }
  ],
  "bytecode": "0x60806040526040518060400160405280600381526020017f313233000000000000000000000000000000000000000000000000000000000081525060029080519060200190620000519291906200012c565b503480156200005f57600080fd5b50604051620012d7380380620012d783398181016040526200008591908101906200024e565b336000806101000a81548173ffffffffffffffffffffffffffffffffffffffff021916908373ffffffffffffffffffffffffffffffffffffffff1602179055508260019080519060200190620000dd9291906200012c565b508160029080519060200190620000f69291906200012c565b50806003819055506000600460006101000a81548160ff021916908360028111156200011e57fe5b02179055505050506200038b565b828054600181600116156101000203166002900490600052602060002090601f016020900481019282601f106200016f57805160ff1916838001178555620001a0565b82800160010185558215620001a0579182015b828111156200019f57825182559160200191906001019062000182565b5b509050620001af9190620001b3565b5090565b620001d891905b80821115620001d4576000816000905550600101620001ba565b5090565b90565b600082601f830112620001ed57600080fd5b815162000204620001fe8262000304565b620002d6565b915080825260208301602083018583830111156200022157600080fd5b6200022e8382846200033b565b50505092915050565b600081519050620002488162000371565b92915050565b6000806000606084860312156200026457600080fd5b600084015167ffffffffffffffff8111156200027f57600080fd5b6200028d86828701620001db565b935050602084015167ffffffffffffffff811115620002ab57600080fd5b620002b986828701620001db565b9250506040620002cc8682870162000237565b9150509250925092565b6000604051905081810181811067ffffffffffffffff82111715620002fa57600080fd5b8060405250919050565b600067ffffffffffffffff8211156200031c57600080fd5b601f19601f8301169050602081019050919050565b6000819050919050565b60005b838110156200035b5780820151818401526020810190506200033e565b838111156200036b576000848401525b50505050565b6200037c8162000331565b81146200038857600080fd5b50565b610f3c806200039b6000396000f3fe608060405234801561001057600080fd5b50600436106100885760003560e01c80635f385dc81161005b5780635f385dc814610117578063b2bdfa7b14610147578063c19d93fb14610165578063fa51193c1461018357610088565b806310a547f01461008d5780634680f8c5146100ab57806348c423f0146100c957806359b9d0cc146100f9575b600080fd5b61009561019f565b6040516100a29190610ca2565b60405180910390f35b6100b36101a9565b6040516100c09190610c5e565b60405180910390f35b6100e360048036036100de919081019061095c565b610247565b6040516100f09190610bff565b60405180910390f35b610101610457565b60405161010e9190610c80565b60405180910390f35b610131600480360361012c919081019061091b565b6104f9565b60405161013e9190610c21565b60405180910390f35b61014f6106cc565b60405161015c9190610be4565b60405180910390f35b61016d6106f1565b60405161017a9190610c43565b60405180910390f35b61019d6004803603610198919081019061095c565b610704565b005b6000600354905090565b60018054600181600116156101000203166002900480601f01602080910402602001604051908101604052809291908181526020018280546001816001161561010002031660029004801561023f5780601f106102145761010080835404028352916020019161023f565b820191906000526020600020905b81548152906001019060200180831161022257829003601f168201915b505050505081565b60606000809054906101000a900473ffffffffffffffffffffffffffffffffffffffff1673ffffffffffffffffffffffffffffffffffffffff163373ffffffffffffffffffffffffffffffffffffffff16146102a257600080fd5b600060028111156102af57fe5b600460009054906101000a900460ff1660028111156102ca57fe5b146102d457600080fd5b6001600460006101000a81548160ff021916908360028111156102f357fe5b021790555060066003548154811061030757fe5b90600052602060002001828154811061031c57fe5b90600052602060002050506006805480602002602001604051908101604052809291908181526020016000905b8282101561044c57838290600052602060002001805480602002602001604051908101604052809291908181526020016000905b82821015610439578382906000526020600020018054600181600116156101000203166002900480601f0160208091040260200160405190810160405280929190818152602001828054600181600116156101000203166002900480156104255780601f106103fa57610100808354040283529160200191610425565b820191906000526020600020905b81548152906001019060200180831161040857829003601f168201915b50505050508152602001906001019061037d565b5050505081526020019060010190610349565b505050509050919050565b606060028054600181600116156101000203166002900480601f0160208091040260200160405190810160405280929190818152602001828054600181600116156101000203166002900480156104ef5780601f106104c4576101008083540402835291602001916104ef565b820191906000526020600020905b8154815290600101906020018083116104d257829003601f168201915b5050505050905090565b60606000809054906101000a900473ffffffffffffffffffffffffffffffffffffffff1673ffffffffffffffffffffffffffffffffffffffff163373ffffffffffffffffffffffffffffffffffffffff161461055457600080fd5b6000600281111561056157fe5b600460009054906101000a900460ff16600281111561057c57fe5b1461058657600080fd5b60008090505b6003548110156105e2578281815181106105a257fe5b6020026020010151600582815481106105b757fe5b9060005260206000200190805190602001906105d4929190610799565b50808060010191505061058c565b506005805480602002602001604051908101604052809291908181526020016000905b828210156106c1578382906000526020600020018054600181600116156101000203166002900480601f0160208091040260200160405190810160405280929190818152602001828054600181600116156101000203166002900480156106ad5780601f10610682576101008083540402835291602001916106ad565b820191906000526020600020905b81548152906001019060200180831161069057829003601f168201915b505050505081526020019060010190610605565b505050509050919050565b6000809054906101000a900473ffffffffffffffffffffffffffffffffffffffff1681565b600460009054906101000a900460ff1681565b6000809054906101000a900473ffffffffffffffffffffffffffffffffffffffff1673ffffffffffffffffffffffffffffffffffffffff163373ffffffffffffffffffffffffffffffffffffffff161461075d57600080fd5b6000600281111561076a57fe5b600460009054906101000a900460ff16600281111561078557fe5b1461078f57600080fd5b8060038190555050565b828054600181600116156101000203166002900490600052602060002090601f016020900481019282601f106107da57805160ff1916838001178555610808565b82800160010185558215610808579182015b828111156108075782518255916020019190600101906107ec565b5b5090506108159190610819565b5090565b61083b91905b8082111561083757600081600090555060010161081f565b5090565b90565b600082601f83011261084f57600080fd5b813561086261085d82610cea565b610cbd565b9150818183526020840193506020810190508360005b838110156108a8578135860161088e88826108b2565b845260208401935060208301925050600181019050610878565b5050505092915050565b600082601f8301126108c357600080fd5b81356108d66108d182610d12565b610cbd565b915080825260208301602083018583830111156108f257600080fd5b6108fd838284610e82565b50505092915050565b60008135905061091581610ee2565b92915050565b60006020828403121561092d57600080fd5b600082013567ffffffffffffffff81111561094757600080fd5b6109538482850161083e565b91505092915050565b60006020828403121561096e57600080fd5b600061097c84828501610906565b91505092915050565b60006109918383610aa6565b905092915050565b60006109a58383610b63565b905092915050565b6109b681610e21565b82525050565b60006109c782610d6e565b6109d18185610dcc565b9350836020820285016109e385610d3e565b8060005b85811015610a1f5784840389528151610a008582610985565b9450610a0b83610da5565b925060208a019950506001810190506109e7565b50829750879550505050505092915050565b6000610a3c82610d84565b610a468185610dee565b935083602082028501610a5885610d5e565b8060005b85811015610a945784840389528151610a758582610999565b9450610a8083610dbf565b925060208a01995050600181019050610a5c565b50829750879550505050505092915050565b6000610ab182610d79565b610abb8185610ddd565b935083602082028501610acd85610d4e565b8060005b85811015610b095784840389528151610aea8582610999565b9450610af583610db2565b925060208a01995050600181019050610ad1565b50829750879550505050505092915050565b610b2481610e70565b82525050565b6000610b3582610d9a565b610b3f8185610e10565b9350610b4f818560208601610e91565b610b5881610ec4565b840191505092915050565b6000610b6e82610d8f565b610b788185610dff565b9350610b88818560208601610e91565b610b9181610ec4565b840191505092915050565b6000610ba782610d8f565b610bb18185610e10565b9350610bc1818560208601610e91565b610bca81610ec4565b840191505092915050565b610bde81610e66565b82525050565b6000602082019050610bf960008301846109ad565b92915050565b60006020820190508181036000830152610c1981846109bc565b905092915050565b60006020820190508181036000830152610c3b8184610a31565b905092915050565b6000602082019050610c586000830184610b1b565b92915050565b60006020820190508181036000830152610c788184610b9c565b905092915050565b60006020820190508181036000830152610c9a8184610b2a565b905092915050565b6000602082019050610cb76000830184610bd5565b92915050565b6000604051905081810181811067ffffffffffffffff82111715610ce057600080fd5b8060405250919050565b600067ffffffffffffffff821115610d0157600080fd5b602082029050602081019050919050565b600067ffffffffffffffff821115610d2957600080fd5b601f19601f8301169050602081019050919050565b6000819050602082019050919050565b6000819050602082019050919050565b6000819050602082019050919050565b600081519050919050565b600081519050919050565b600081519050919050565b600081519050919050565b600081519050919050565b6000602082019050919050565b6000602082019050919050565b6000602082019050919050565b600082825260208201905092915050565b600082825260208201905092915050565b600082825260208201905092915050565b600082825260208201905092915050565b600082825260208201905092915050565b6000610e2c82610e46565b9050919050565b6000819050610e4182610ed5565b919050565b600073ffffffffffffffffffffffffffffffffffffffff82169050919050565b6000819050919050565b6000610e7b82610e33565b9050919050565b82818337600083830152505050565b60005b83811015610eaf578082015181840152602081019050610e94565b83811115610ebe576000848401525b50505050565b6000601f19601f8301169050919050565b60038110610edf57fe5b50565b610eeb81610e66565b8114610ef657600080fd5b5056fea365627a7a723158208ebe79daa769f01b59209303e61379f1149ab9a8d1179fab5cc4e50d739640646c6578706572696d656e74616cf564736f6c63430005100040",
  "source": "pragma solidity ^0.5.16;\npragma experimental ABIEncoderV2;\n\ncontract Survey {\n    address public _owner;\n    string public _surveyname;\n    string private _surveyURL = \"123\";\n    uint private _amountparticipants;\n    enum State { Created, Open, Ended }\n    State public state;\n    string[] survey_questionnair;\n    string[][] survey_storage;\n\n    constructor(string memory name, string memory URL, uint participants) public{\n        _owner = msg.sender;\n        _surveyname = name;\n        _surveyURL = URL;\n        _amountparticipants = participants;\n        state = State.Created;\n\n    }\nfunction get_URL() public view returns (string memory) {\n        return _surveyURL;\n    }\n\n    function get_amountparticipants() public view  returns (uint) {\n        return _amountparticipants;\n    }\n\n    modifier _editor{\n        require(msg.sender == _owner);\n        _;\n        // can add other contracts that need to do something\n    }\n\n    function set_amountparticipants(uint new_participantnumber) public  _editor{\n        require(state == State.Created);\n        _amountparticipants = new_participantnumber;\n    }\n    \n     function PrepareSurvey(string[] memory questions ) public _editor returns(string[] memory)  {\n        require(state == State.Created);\n                for (uint i = 0; i < _amountparticipants; i++) {\n                         survey_questionnair[i] = questions[i];\n                }\n                return survey_questionnair;\n        }\n\n   function InitSurvey(uint _amountquestions) public _editor returns(string[][] memory) {\n        require (state == State.Created);\n        state = State.Open;\n        survey_storage[_amountparticipants][_amountquestions];\n        return survey_storage;\n\n        }\n\n\n}\n",
  "sourcePath": "/Users/juliastein/Documents/Uni/Master TUB/Projekte /BC-project/bubble/contracts/Survey.sol",
  "compiler": {
    "name": "solc",
    "version": "0.5.16+commit.9c3226ce.Emscripten.clang"
  },
  "schemaVersion": "3.2.0",
  "updatedAt": "2020-06-07T12:31:59.245Z",
  "devdoc": {
    "methods": {}
  },
  "userdoc": {
    "methods": {}
  }
}