{
  "contractName": "Survey",
  "abi": [
    {
      "inputs": [
        {
          "internalType": "string",
          "name": "name",
          "type": "string"
        },
        {
          "internalType": "string",
          "name": "URL",
          "type": "string"
        },
        {
          "internalType": "uint256",
          "name": "participants",
          "type": "uint256"
        }
      ],
      "payable": false,
      "stateMutability": "nonpayable",
      "type": "constructor"
    },
    {
      "constant": true,
      "inputs": [],
      "name": "_owner",
      "outputs": [
        {
          "internalType": "address",
          "name": "",
          "type": "address"
        }
      ],
      "payable": false,
      "stateMutability": "view",
      "type": "function"
    },
    {
      "constant": true,
      "inputs": [],
      "name": "_surveyname",
      "outputs": [
        {
          "internalType": "string",
          "name": "",
          "type": "string"
        }
      ],
      "payable": false,
      "stateMutability": "view",
      "type": "function"
    },
    {
      "constant": true,
      "inputs": [],
      "name": "state",
      "outputs": [
        {
          "internalType": "enum Survey.State",
          "name": "",
          "type": "uint8"
        }
      ],
      "payable": false,
      "stateMutability": "view",
      "type": "function"
    },
    {
      "constant": true,
      "inputs": [
        {
          "internalType": "uint256",
          "name": "",
          "type": "uint256"
        }
      ],
      "name": "survey_questionnair",
      "outputs": [
        {
          "internalType": "string",
          "name": "",
          "type": "string"
        }
      ],
      "payable": false,
      "stateMutability": "view",
      "type": "function"
    },
    {
      "constant": true,
      "inputs": [],
      "name": "get_URL",
      "outputs": [
        {
          "internalType": "string",
          "name": "",
          "type": "string"
        }
      ],
      "payable": false,
      "stateMutability": "view",
      "type": "function"
    },
    {
      "constant": true,
      "inputs": [],
      "name": "get_amountparticipants",
      "outputs": [
        {
          "internalType": "uint256",
          "name": "",
          "type": "uint256"
        }
      ],
      "payable": false,
      "stateMutability": "view",
      "type": "function"
    },
    {
      "constant": false,
      "inputs": [
        {
          "internalType": "uint256",
          "name": "new_participantnumber",
          "type": "uint256"
        }
      ],
      "name": "set_amountparticipants",
      "outputs": [],
      "payable": false,
      "stateMutability": "nonpayable",
      "type": "function"
    },
    {
      "constant": false,
      "inputs": [
        {
          "internalType": "string[]",
          "name": "questions",
          "type": "string[]"
        },
        {
          "internalType": "uint256",
          "name": "amountquestions",
          "type": "uint256"
        }
      ],
      "name": "PrepareSurvey",
      "outputs": [
        {
          "internalType": "string[]",
          "name": "",
          "type": "string[]"
        }
      ],
      "payable": false,
      "stateMutability": "nonpayable",
      "type": "function"
    },
    {
      "constant": false,
      "inputs": [],
      "name": "InitSurvey",
      "outputs": [
        {
          "internalType": "string[][]",
          "name": "",
          "type": "string[][]"
        }
      ],
      "payable": false,
      "stateMutability": "nonpayable",
      "type": "function"
    },
    {
      "constant": false,
      "inputs": [
        {
          "internalType": "string[]",
          "name": "answers",
          "type": "string[]"
        }
      ],
      "name": "participate",
      "outputs": [],
      "payable": false,
      "stateMutability": "nonpayable",
      "type": "function"
    },
    {
      "constant": true,
      "inputs": [],
      "name": "retrieve_results",
      "outputs": [
        {
          "internalType": "string[][]",
          "name": "",
          "type": "string[][]"
        }
      ],
      "payable": false,
      "stateMutability": "view",
      "type": "function"
    }
  ],
  "bytecode": "0x60806040526040518060400160405280600381526020017f3132330000000000000000000000000000000000000000000000000000000000815250600290805190602001906200005192919062000131565b5060006004553480156200006457600080fd5b506040516200177a3803806200177a83398181016040526200008a919081019062000253565b336000806101000a81548173ffffffffffffffffffffffffffffffffffffffff021916908373ffffffffffffffffffffffffffffffffffffffff1602179055508260019080519060200190620000e292919062000131565b508160029080519060200190620000fb92919062000131565b50806003819055506000600560006101000a81548160ff021916908360028111156200012357fe5b021790555050505062000390565b828054600181600116156101000203166002900490600052602060002090601f016020900481019282601f106200017457805160ff1916838001178555620001a5565b82800160010185558215620001a5579182015b82811115620001a457825182559160200191906001019062000187565b5b509050620001b49190620001b8565b5090565b620001dd91905b80821115620001d9576000816000905550600101620001bf565b5090565b90565b600082601f830112620001f257600080fd5b815162000209620002038262000309565b620002db565b915080825260208301602083018583830111156200022657600080fd5b6200023383828462000340565b50505092915050565b6000815190506200024d8162000376565b92915050565b6000806000606084860312156200026957600080fd5b600084015167ffffffffffffffff8111156200028457600080fd5b6200029286828701620001e0565b935050602084015167ffffffffffffffff811115620002b057600080fd5b620002be86828701620001e0565b9250506040620002d1868287016200023c565b9150509250925092565b6000604051905081810181811067ffffffffffffffff82111715620002ff57600080fd5b8060405250919050565b600067ffffffffffffffff8211156200032157600080fd5b601f19601f8301169050602081019050919050565b6000819050919050565b60005b838110156200036057808201518184015260208101905062000343565b8381111562000370576000848401525b50505050565b620003818162000336565b81146200038d57600080fd5b50565b6113da80620003a06000396000f3fe608060405234801561001057600080fd5b50600436106100a95760003560e01c80634c5316d8116100715780634c5316d81461015657806359b9d0cc146101865780638e13cc97146101a4578063b2bdfa7b146101c0578063c19d93fb146101de578063fa51193c146101fc576100a9565b80630378995e146100ae578063081184bf146100cc57806310a547f0146100ea578063110d2a56146101085780634680f8c514610138575b600080fd5b6100b6610218565b6040516100c3919061109d565b60405180910390f35b6100d4610428565b6040516100e1919061109d565b60405180910390f35b6100f26105e2565b6040516100ff9190611140565b60405180910390f35b610122600480360361011d9190810190610da6565b6105ec565b60405161012f91906110bf565b60405180910390f35b6101406107ca565b60405161014d91906110fc565b60405180910390f35b610170600480360361016b9190810190610dfa565b610868565b60405161017d91906110fc565b60405180910390f35b61018e610921565b60405161019b919061111e565b60405180910390f35b6101be60048036036101b99190810190610d65565b6109c3565b005b6101c8610b16565b6040516101d59190611082565b60405180910390f35b6101e6610b3b565b6040516101f391906110e1565b60405180910390f35b61021660048036036102119190810190610dfa565b610b4e565b005b60606000809054906101000a900473ffffffffffffffffffffffffffffffffffffffff1673ffffffffffffffffffffffffffffffffffffffff163373ffffffffffffffffffffffffffffffffffffffff161461027357600080fd5b6000600281111561028057fe5b600560009054906101000a900460ff16600281111561029b57fe5b146102a557600080fd5b6001600560006101000a81548160ff021916908360028111156102c457fe5b02179055506007600354815481106102d857fe5b90600052602060002001600854815481106102ef57fe5b90600052602060002050506007805480602002602001604051908101604052809291908181526020016000905b8282101561041f57838290600052602060002001805480602002602001604051908101604052809291908181526020016000905b8282101561040c578382906000526020600020018054600181600116156101000203166002900480601f0160208091040260200160405190810160405280929190818152602001828054600181600116156101000203166002900480156103f85780601f106103cd576101008083540402835291602001916103f8565b820191906000526020600020905b8154815290600101906020018083116103db57829003601f168201915b505050505081526020019060010190610350565b505050508152602001906001019061031c565b50505050905090565b60606000809054906101000a900473ffffffffffffffffffffffffffffffffffffffff1673ffffffffffffffffffffffffffffffffffffffff163373ffffffffffffffffffffffffffffffffffffffff161461048357600080fd5b60028081111561048f57fe5b600560009054906101000a900460ff1660028111156104aa57fe5b146104b457600080fd5b6007805480602002602001604051908101604052809291908181526020016000905b828210156105d957838290600052602060002001805480602002602001604051908101604052809291908181526020016000905b828210156105c6578382906000526020600020018054600181600116156101000203166002900480601f0160208091040260200160405190810160405280929190818152602001828054600181600116156101000203166002900480156105b25780601f10610587576101008083540402835291602001916105b2565b820191906000526020600020905b81548152906001019060200180831161059557829003601f168201915b50505050508152602001906001019061050a565b50505050815260200190600101906104d6565b50505050905090565b6000600354905090565b60606000809054906101000a900473ffffffffffffffffffffffffffffffffffffffff1673ffffffffffffffffffffffffffffffffffffffff163373ffffffffffffffffffffffffffffffffffffffff161461064757600080fd5b6000600281111561065457fe5b600560009054906101000a900460ff16600281111561066f57fe5b1461067957600080fd5b6001820360088190555060008090505b6008548110156106df5783818151811061069f57fe5b6020026020010151600682815481106106b457fe5b9060005260206000200190805190602001906106d1929190610be3565b508080600101915050610689565b506006805480602002602001604051908101604052809291908181526020016000905b828210156107be578382906000526020600020018054600181600116156101000203166002900480601f0160208091040260200160405190810160405280929190818152602001828054600181600116156101000203166002900480156107aa5780601f1061077f576101008083540402835291602001916107aa565b820191906000526020600020905b81548152906001019060200180831161078d57829003601f168201915b505050505081526020019060010190610702565b50505050905092915050565b60018054600181600116156101000203166002900480601f0160208091040260200160405190810160405280929190818152602001828054600181600116156101000203166002900480156108605780601f1061083557610100808354040283529160200191610860565b820191906000526020600020905b81548152906001019060200180831161084357829003601f168201915b505050505081565b6006818154811061087557fe5b906000526020600020016000915090508054600181600116156101000203166002900480601f0160208091040260200160405190810160405280929190818152602001828054600181600116156101000203166002900480156109195780601f106108ee57610100808354040283529160200191610919565b820191906000526020600020905b8154815290600101906020018083116108fc57829003601f168201915b505050505081565b606060028054600181600116156101000203166002900480601f0160208091040260200160405190810160405280929190818152602001828054600181600116156101000203166002900480156109b95780601f1061098e576101008083540402835291602001916109b9565b820191906000526020600020905b81548152906001019060200180831161099c57829003601f168201915b5050505050905090565b600160028111156109d057fe5b600560009054906101000a900460ff1660028111156109eb57fe5b1480156109fb5750600354600454105b8015610a5457506000809054906101000a900473ffffffffffffffffffffffffffffffffffffffff1673ffffffffffffffffffffffffffffffffffffffff163373ffffffffffffffffffffffffffffffffffffffff1614155b610a5d57600080fd5b60008090505b6008548111610acf57818181518110610a7857fe5b6020026020010151600760045481548110610a8f57fe5b906000526020600020018281548110610aa457fe5b906000526020600020019080519060200190610ac1929190610be3565b508080600101915050610a63565b506004600081548092919060010191905055506003546004541415610b13576002600560006101000a81548160ff02191690836002811115610b0d57fe5b02179055505b50565b6000809054906101000a900473ffffffffffffffffffffffffffffffffffffffff1681565b600560009054906101000a900460ff1681565b6000809054906101000a900473ffffffffffffffffffffffffffffffffffffffff1673ffffffffffffffffffffffffffffffffffffffff163373ffffffffffffffffffffffffffffffffffffffff1614610ba757600080fd5b60006002811115610bb457fe5b600560009054906101000a900460ff166002811115610bcf57fe5b14610bd957600080fd5b8060038190555050565b828054600181600116156101000203166002900490600052602060002090601f016020900481019282601f10610c2457805160ff1916838001178555610c52565b82800160010185558215610c52579182015b82811115610c51578251825591602001919060010190610c36565b5b509050610c5f9190610c63565b5090565b610c8591905b80821115610c81576000816000905550600101610c69565b5090565b90565b600082601f830112610c9957600080fd5b8135610cac610ca782611188565b61115b565b9150818183526020840193506020810190508360005b83811015610cf25781358601610cd88882610cfc565b845260208401935060208301925050600181019050610cc2565b5050505092915050565b600082601f830112610d0d57600080fd5b8135610d20610d1b826111b0565b61115b565b91508082526020830160208301858383011115610d3c57600080fd5b610d47838284611320565b50505092915050565b600081359050610d5f81611380565b92915050565b600060208284031215610d7757600080fd5b600082013567ffffffffffffffff811115610d9157600080fd5b610d9d84828501610c88565b91505092915050565b60008060408385031215610db957600080fd5b600083013567ffffffffffffffff811115610dd357600080fd5b610ddf85828601610c88565b9250506020610df085828601610d50565b9150509250929050565b600060208284031215610e0c57600080fd5b6000610e1a84828501610d50565b91505092915050565b6000610e2f8383610f44565b905092915050565b6000610e438383611001565b905092915050565b610e54816112bf565b82525050565b6000610e658261120c565b610e6f818561126a565b935083602082028501610e81856111dc565b8060005b85811015610ebd5784840389528151610e9e8582610e23565b9450610ea983611243565b925060208a01995050600181019050610e85565b50829750879550505050505092915050565b6000610eda82611222565b610ee4818561128c565b935083602082028501610ef6856111fc565b8060005b85811015610f325784840389528151610f138582610e37565b9450610f1e8361125d565b925060208a01995050600181019050610efa565b50829750879550505050505092915050565b6000610f4f82611217565b610f59818561127b565b935083602082028501610f6b856111ec565b8060005b85811015610fa75784840389528151610f888582610e37565b9450610f9383611250565b925060208a01995050600181019050610f6f565b50829750879550505050505092915050565b610fc28161130e565b82525050565b6000610fd382611238565b610fdd81856112ae565b9350610fed81856020860161132f565b610ff681611362565b840191505092915050565b600061100c8261122d565b611016818561129d565b935061102681856020860161132f565b61102f81611362565b840191505092915050565b60006110458261122d565b61104f81856112ae565b935061105f81856020860161132f565b61106881611362565b840191505092915050565b61107c81611304565b82525050565b60006020820190506110976000830184610e4b565b92915050565b600060208201905081810360008301526110b78184610e5a565b905092915050565b600060208201905081810360008301526110d98184610ecf565b905092915050565b60006020820190506110f66000830184610fb9565b92915050565b60006020820190508181036000830152611116818461103a565b905092915050565b600060208201905081810360008301526111388184610fc8565b905092915050565b60006020820190506111556000830184611073565b92915050565b6000604051905081810181811067ffffffffffffffff8211171561117e57600080fd5b8060405250919050565b600067ffffffffffffffff82111561119f57600080fd5b602082029050602081019050919050565b600067ffffffffffffffff8211156111c757600080fd5b601f19601f8301169050602081019050919050565b6000819050602082019050919050565b6000819050602082019050919050565b6000819050602082019050919050565b600081519050919050565b600081519050919050565b600081519050919050565b600081519050919050565b600081519050919050565b6000602082019050919050565b6000602082019050919050565b6000602082019050919050565b600082825260208201905092915050565b600082825260208201905092915050565b600082825260208201905092915050565b600082825260208201905092915050565b600082825260208201905092915050565b60006112ca826112e4565b9050919050565b60008190506112df82611373565b919050565b600073ffffffffffffffffffffffffffffffffffffffff82169050919050565b6000819050919050565b6000611319826112d1565b9050919050565b82818337600083830152505050565b60005b8381101561134d578082015181840152602081019050611332565b8381111561135c576000848401525b50505050565b6000601f19601f8301169050919050565b6003811061137d57fe5b50565b61138981611304565b811461139457600080fd5b5056fea365627a7a7231582071f2d73658c23ee03c53098022c41857f92cff043987e859bcf858b83c7a2e1c6c6578706572696d656e74616cf564736f6c63430005100040",
  "source": "pragma solidity ^0.5.16;\npragma experimental ABIEncoderV2;\n\ncontract Survey {\n    address public _owner;\n    string public _surveyname;\n    string private _surveyURL = \"123\";\n    uint private _amountparticipants;\n    uint private _actual_participants = 0;\n    enum State { Created, Open, Ended }\n    State public state;\n    string[] public survey_questionnair;\n    string[][] private survey_storage;\n    uint private _amountquestions; \n\n    constructor(string memory name, string memory URL, uint participants) public{\n        _owner = msg.sender;\n        _surveyname = name;\n        _surveyURL = URL;\n        _amountparticipants = participants;\n        state = State.Created;\n\n    }\nfunction get_URL() public view returns (string memory) {\n        return _surveyURL;\n    }\n\n    function get_amountparticipants() public view  returns (uint) {\n        return _amountparticipants;\n    }\n\n    modifier _editor{\n        require(msg.sender == _owner);\n        _;\n        // can add other contracts that need to do something\n    }\n\n    function set_amountparticipants(uint new_participantnumber) public  _editor{\n        require(state == State.Created);\n        _amountparticipants = new_participantnumber;\n    }\n    \n     function PrepareSurvey(string[] memory questions, uint amountquestions ) public _editor returns(string[] memory)  {\n        require(state == State.Created);\n        _amountquestions = amountquestions-1;\n                for (uint i = 0; i < _amountquestions; i++) {\n                         survey_questionnair[i] = questions[i];\n                }\n                return survey_questionnair;\n        }\n\n   function InitSurvey() public _editor returns(string[][] memory) {\n        require (state == State.Created);\n        state = State.Open;\n        survey_storage[_amountparticipants][_amountquestions];\n        return survey_storage;\n\n        }\n    function participate(string[] memory answers) public {\n        require (state == State.Open && (_actual_participants < _amountparticipants) && (msg.sender != _owner));\n        for (uint i = 0; i <= _amountquestions; i++ ) {\n           survey_storage[_actual_participants][i] =  answers[i];\n        }\n        _actual_participants ++; \n        if (_actual_participants == _amountparticipants) {\n            state = State.Ended; \n        }\n    }\n    \n    function retrieve_results () public view _editor returns(string[][] memory) {\n        require (state == State.Ended);\n        return survey_storage;\n    }\n\n}\n\n\n",
  "sourcePath": "/Users/juliastein/Documents/Uni/Master TUB/Projekte /BC-project/bubble/contracts/Survey.sol",
  "compiler": {
    "name": "solc",
    "version": "0.5.16+commit.9c3226ce.Emscripten.clang"
  },
  "schemaVersion": "3.2.0",
  "updatedAt": "2020-06-14T20:07:01.898Z",
  "networkType": "ethereum",
  "devdoc": {
    "methods": {}
  },
  "userdoc": {
    "methods": {}
  }
}