{
  "contractName": "Survey",
  "abi": [
    {
      "inputs": [
        {
          "internalType": "string",
          "name": "name",
          "type": "string"
        },
        {
          "internalType": "string",
          "name": "URL",
          "type": "string"
        },
        {
          "internalType": "uint256",
          "name": "participants",
          "type": "uint256"
        }
      ],
      "payable": false,
      "stateMutability": "nonpayable",
      "type": "constructor"
    },
    {
      "constant": true,
      "inputs": [],
      "name": "_owner",
      "outputs": [
        {
          "internalType": "address",
          "name": "",
          "type": "address"
        }
      ],
      "payable": false,
      "stateMutability": "view",
      "type": "function"
    },
    {
      "constant": true,
      "inputs": [],
      "name": "_surveyname",
      "outputs": [
        {
          "internalType": "string",
          "name": "",
          "type": "string"
        }
      ],
      "payable": false,
      "stateMutability": "view",
      "type": "function"
    },
    {
      "constant": true,
      "inputs": [],
      "name": "state",
      "outputs": [
        {
          "internalType": "enum Survey.State",
          "name": "",
          "type": "uint8"
        }
      ],
      "payable": false,
      "stateMutability": "view",
      "type": "function"
    },
    {
      "constant": true,
      "inputs": [],
      "name": "get_URL",
      "outputs": [
        {
          "internalType": "string",
          "name": "",
          "type": "string"
        }
      ],
      "payable": false,
      "stateMutability": "view",
      "type": "function"
    },
    {
      "constant": true,
      "inputs": [],
      "name": "get_amountparticipants",
      "outputs": [
        {
          "internalType": "uint256",
          "name": "",
          "type": "uint256"
        }
      ],
      "payable": false,
      "stateMutability": "view",
      "type": "function"
    },
    {
      "constant": false,
      "inputs": [
        {
          "internalType": "uint256",
          "name": "new_participantnumber",
          "type": "uint256"
        }
      ],
      "name": "set_amountparticipants",
      "outputs": [],
      "payable": false,
      "stateMutability": "nonpayable",
      "type": "function"
    },
    {
      "constant": false,
      "inputs": [],
      "name": "InitSurvey",
      "outputs": [],
      "payable": false,
      "stateMutability": "nonpayable",
      "type": "function"
    }
  ],
  "bytecode": "0x608060405234801561001057600080fd5b506040516108263803806108268339818101604052606081101561003357600080fd5b810190808051604051939291908464010000000082111561005357600080fd5b8382019150602082018581111561006957600080fd5b825186600182028301116401000000008211171561008657600080fd5b8083526020830192505050908051906020019080838360005b838110156100ba57808201518184015260208101905061009f565b50505050905090810190601f1680156100e75780820380516001836020036101000a031916815260200191505b506040526020018051604051939291908464010000000082111561010a57600080fd5b8382019150602082018581111561012057600080fd5b825186600182028301116401000000008211171561013d57600080fd5b8083526020830192505050908051906020019080838360005b83811015610171578082015181840152602081019050610156565b50505050905090810190601f16801561019e5780820380516001836020036101000a031916815260200191505b5060405260200180519060200190929190505050336000806101000a81548173ffffffffffffffffffffffffffffffffffffffff021916908373ffffffffffffffffffffffffffffffffffffffff1602179055508260019080519060200190610208929190610253565b50816002908051906020019061021f929190610253565b50806003819055506000600460006101000a81548160ff0219169083600281111561024657fe5b02179055505050506102f8565b828054600181600116156101000203166002900490600052602060002090601f016020900481019282601f1061029457805160ff19168380011785556102c2565b828001600101855582156102c2579182015b828111156102c15782518255916020019190600101906102a6565b5b5090506102cf91906102d3565b5090565b6102f591905b808211156102f15760008160009055506001016102d9565b5090565b90565b61051f806103076000396000f3fe608060405234801561001057600080fd5b506004361061007d5760003560e01c806359b9d0cc1161005b57806359b9d0cc1461012d578063b2bdfa7b146101b0578063c19d93fb146101fa578063fa51193c146102265761007d565b80630378995e1461008257806310a547f01461008c5780634680f8c5146100aa575b600080fd5b61008a610254565b005b6100946102d3565b6040518082815260200191505060405180910390f35b6100b26102dd565b6040518080602001828103825283818151815260200191508051906020019080838360005b838110156100f25780820151818401526020810190506100d7565b50505050905090810190601f16801561011f5780820380516001836020036101000a031916815260200191505b509250505060405180910390f35b61013561037b565b6040518080602001828103825283818151815260200191508051906020019080838360005b8381101561017557808201518184015260208101905061015a565b50505050905090810190601f1680156101a25780820380516001836020036101000a031916815260200191505b509250505060405180910390f35b6101b861041d565b604051808273ffffffffffffffffffffffffffffffffffffffff1673ffffffffffffffffffffffffffffffffffffffff16815260200191505060405180910390f35b610202610442565b6040518082600281111561021257fe5b60ff16815260200191505060405180910390f35b6102526004803603602081101561023c57600080fd5b8101908080359060200190929190505050610455565b005b6000809054906101000a900473ffffffffffffffffffffffffffffffffffffffff1673ffffffffffffffffffffffffffffffffffffffff163373ffffffffffffffffffffffffffffffffffffffff16146102ad57600080fd5b6001600460006101000a81548160ff021916908360028111156102cc57fe5b0217905550565b6000600354905090565b60018054600181600116156101000203166002900480601f0160208091040260200160405190810160405280929190818152602001828054600181600116156101000203166002900480156103735780601f1061034857610100808354040283529160200191610373565b820191906000526020600020905b81548152906001019060200180831161035657829003601f168201915b505050505081565b606060028054600181600116156101000203166002900480601f0160208091040260200160405190810160405280929190818152602001828054600181600116156101000203166002900480156104135780601f106103e857610100808354040283529160200191610413565b820191906000526020600020905b8154815290600101906020018083116103f657829003601f168201915b5050505050905090565b6000809054906101000a900473ffffffffffffffffffffffffffffffffffffffff1681565b600460009054906101000a900460ff1681565b6000809054906101000a900473ffffffffffffffffffffffffffffffffffffffff1673ffffffffffffffffffffffffffffffffffffffff163373ffffffffffffffffffffffffffffffffffffffff16146104ae57600080fd5b600060028111156104bb57fe5b600460009054906101000a900460ff1660028111156104d657fe5b146104e057600080fd5b806003819055505056fea265627a7a72315820996ec21797e498579c6f4be4f2e212810ab7a4e76e9d8e77bc3e8d9a5cf5de0064736f6c63430005100032",
  "source": "pragma solidity ^0.5.16;\r\n\r\ncontract Survey {\r\n    address public _owner;\r\n    string public _surveyname;\r\n    string private _surveyURL;\r\n    uint private _amountparticipants;\r\n    enum State { Created, Open, Ended }\r\n    State public state;\r\n    \r\n    constructor(string memory name, string memory URL, uint participants) public{\r\n        _owner = msg.sender;\r\n        _surveyname = name; \r\n        _surveyURL = URL;\r\n        _amountparticipants = participants;\r\n        state = State.Created;\r\n        \r\n    }\r\n    \r\n    function get_URL() public view returns (string memory) {\r\n        return _surveyURL;\r\n    }\r\n    \r\n    function get_amountparticipants() public view  returns (uint) {\r\n        return _amountparticipants;\r\n    }\r\n    \r\n    modifier _editor{\r\n        require(msg.sender == _owner);\r\n        _;\r\n        // can add other contracts that need to do something\r\n    }\r\n    \r\n    function set_amountparticipants(uint new_participantnumber) public  _editor{\r\n        require(state == State.Created);\r\n        _amountparticipants = new_participantnumber;\r\n    }\r\n    \r\n    function InitSurvey() public  _editor{\r\n        state = State.Open;\r\n        //Links need to be created, other stuff needs to be done :)\r\n    }\r\n}\r\n    \r\n",
  "sourcePath": "C:\\Users\\pio\\Desktop\\GIT\\bubble\\Project\\contracts\\Survey.sol",
  "compiler": {
    "name": "solc",
    "version": "0.5.16+commit.9c3226ce.Emscripten.clang"
  },
  "schemaVersion": "3.2.0",
  "updatedAt": "2020-06-06T08:18:58.880Z",
  "networkType": "ethereum",
  "devdoc": {
    "methods": {}
  },
  "userdoc": {
    "methods": {}
  }
}